{
  "contracts/Marketplace.sol": {
    "Marketplace": {
      "abi": [
        {
          "anonymous": false,
          "inputs": [
            {
              "indexed": false,
              "internalType": "uint256",
              "name": "id",
              "type": "uint256"
            },
            {
              "indexed": false,
              "internalType": "address",
              "name": "owner",
              "type": "address"
            },
            {
              "indexed": false,
              "internalType": "string",
              "name": "name",
              "type": "string"
            },
            {
              "indexed": false,
              "internalType": "uint256",
              "name": "price",
              "type": "uint256"
            },
            {
              "indexed": false,
              "internalType": "uint256",
              "name": "quantity",
              "type": "uint256"
            }
          ],
          "name": "ItemListed",
          "type": "event"
        },
        {
          "anonymous": false,
          "inputs": [
            {
              "indexed": false,
              "internalType": "uint256",
              "name": "id",
              "type": "uint256"
            },
            {
              "indexed": false,
              "internalType": "address",
              "name": "buyer",
              "type": "address"
            },
            {
              "indexed": false,
              "internalType": "uint256",
              "name": "price",
              "type": "uint256"
            },
            {
              "indexed": false,
              "internalType": "uint256",
              "name": "quantityLeft",
              "type": "uint256"
            }
          ],
          "name": "ItemPurchased",
          "type": "event"
        },
        {
          "inputs": [],
          "name": "getItems",
          "outputs": [
            {
              "internalType": "uint256[]",
              "name": "",
              "type": "uint256[]"
            },
            {
              "internalType": "address[]",
              "name": "",
              "type": "address[]"
            },
            {
              "internalType": "string[]",
              "name": "",
              "type": "string[]"
            },
            {
              "internalType": "uint256[]",
              "name": "",
              "type": "uint256[]"
            },
            {
              "internalType": "uint256[]",
              "name": "",
              "type": "uint256[]"
            },
            {
              "internalType": "bool[]",
              "name": "",
              "type": "bool[]"
            }
          ],
          "stateMutability": "view",
          "type": "function"
        },
        {
          "inputs": [],
          "name": "itemCount",
          "outputs": [
            {
              "internalType": "uint256",
              "name": "",
              "type": "uint256"
            }
          ],
          "stateMutability": "view",
          "type": "function"
        },
        {
          "inputs": [
            {
              "internalType": "uint256",
              "name": "",
              "type": "uint256"
            }
          ],
          "name": "items",
          "outputs": [
            {
              "internalType": "uint256",
              "name": "id",
              "type": "uint256"
            },
            {
              "internalType": "address payable",
              "name": "owner",
              "type": "address"
            },
            {
              "internalType": "string",
              "name": "name",
              "type": "string"
            },
            {
              "internalType": "uint256",
              "name": "price",
              "type": "uint256"
            },
            {
              "internalType": "uint256",
              "name": "quantity",
              "type": "uint256"
            },
            {
              "internalType": "bool",
              "name": "isSold",
              "type": "bool"
            }
          ],
          "stateMutability": "view",
          "type": "function"
        },
        {
          "inputs": [
            {
              "internalType": "string",
              "name": "name",
              "type": "string"
            },
            {
              "internalType": "uint256",
              "name": "price",
              "type": "uint256"
            },
            {
              "internalType": "uint256",
              "name": "quantity",
              "type": "uint256"
            }
          ],
          "name": "listItem",
          "outputs": [],
          "stateMutability": "nonpayable",
          "type": "function"
        },
        {
          "inputs": [
            {
              "internalType": "uint256",
              "name": "id",
              "type": "uint256"
            }
          ],
          "name": "purchaseItem",
          "outputs": [],
          "stateMutability": "payable",
          "type": "function"
        }
      ],
      "evm": {
        "bytecode": {
          "linkReferences": {},
          "object": "6080604052348015600f57600080fd5b5061189b8061001f6000396000f3fe60806040526004361061004a5760003560e01c8063410d59cc1461004f5780636bfb0d011461007f578063bfb231d2146100aa578063d38ea5bf146100ec578063f176627914610108575b600080fd5b34801561005b57600080fd5b50610064610131565b60405161007696959493929190610e12565b60405180910390f35b34801561008b57600080fd5b5061009461057c565b6040516100a19190610eac565b60405180910390f35b3480156100b657600080fd5b506100d160048036038101906100cc9190610f07565b610582565b6040516100e396959493929190610fae565b60405180910390f35b61010660048036038101906101019190610f07565b610673565b005b34801561011457600080fd5b5061012f600480360381019061012a919061114b565b610860565b005b606080606080606080600060015467ffffffffffffffff81111561015857610157611020565b5b6040519080825280602002602001820160405280156101865781602001602082028036833780820191505090505b509050600060015467ffffffffffffffff8111156101a7576101a6611020565b5b6040519080825280602002602001820160405280156101d55781602001602082028036833780820191505090505b509050600060015467ffffffffffffffff8111156101f6576101f5611020565b5b60405190808252806020026020018201604052801561022957816020015b60608152602001906001900390816102145790505b509050600060015467ffffffffffffffff81111561024a57610249611020565b5b6040519080825280602002602001820160405280156102785781602001602082028036833780820191505090505b509050600060015467ffffffffffffffff81111561029957610298611020565b5b6040519080825280602002602001820160405280156102c75781602001602082028036833780820191505090505b509050600060015467ffffffffffffffff8111156102e8576102e7611020565b5b6040519080825280602002602001820160405280156103165781602001602082028036833780820191505090505b5090506000600190505b600154811161055b576000806000838152602001908152602001600020905080600001548860018461035291906111e9565b815181106103635761036261121d565b5b6020026020010181815250508060010160009054906101000a900473ffffffffffffffffffffffffffffffffffffffff16876001846103a291906111e9565b815181106103b3576103b261121d565b5b602002602001019073ffffffffffffffffffffffffffffffffffffffff16908173ffffffffffffffffffffffffffffffffffffffff16815250508060020180546103fc9061127b565b80601f01602080910402602001604051908101604052809291908181526020018280546104289061127b565b80156104755780601f1061044a57610100808354040283529160200191610475565b820191906000526020600020905b81548152906001019060200180831161045857829003601f168201915b50505050508660018461048891906111e9565b815181106104995761049861121d565b5b60200260200101819052508060030154856001846104b791906111e9565b815181106104c8576104c761121d565b5b6020026020010181815250508060040154846001846104e791906111e9565b815181106104f8576104f761121d565b5b6020026020010181815250508060050160009054906101000a900460ff168360018461052491906111e9565b815181106105355761053461121d565b5b602002602001019015159081151581525050508080610553906112ac565b915050610320565b508585858585859b509b509b509b509b509b50505050505050909192939495565b60015481565b60006020528060005260406000206000915090508060000154908060010160009054906101000a900473ffffffffffffffffffffffffffffffffffffffff16908060020180546105d19061127b565b80601f01602080910402602001604051908101604052809291908181526020018280546105fd9061127b565b801561064a5780601f1061061f5761010080835404028352916020019161064a565b820191906000526020600020905b81548152906001019060200180831161062d57829003601f168201915b5050505050908060030154908060040154908060050160009054906101000a900460ff16905086565b600080600083815260200190815260200160002090508060050160009054906101000a900460ff16156106db576040517f08c379a00000000000000000000000000000000000000000000000000000000081526004016106d290611340565b60405180910390fd5b6000816004015411610722576040517f08c379a0000000000000000000000000000000000000000000000000000000008152600401610719906113ac565b60405180910390fd5b80600301543414610768576040517f08c379a000000000000000000000000000000000000000000000000000000000815260040161075f90611418565b60405180910390fd5b8060010160009054906101000a900473ffffffffffffffffffffffffffffffffffffffff1673ffffffffffffffffffffffffffffffffffffffff166108fc349081150290604051600060405180830381858888f193505050501580156107d2573d6000803e3d6000fd5b508060040160008154809291906107e890611438565b919050555060008160040154036108175760018160050160006101000a81548160ff0219169083151502179055505b7f7e90354d1b8c35feb2fac2d29c9e6d5a7daa4d8d4e97ac36fd94cc11a3db3d9e8233836003015484600401546040516108549493929190611470565b60405180910390a15050565b600082116108a3576040517f08c379a000000000000000000000000000000000000000000000000000000000815260040161089a90611501565b60405180910390fd5b600081116108e6576040517f08c379a00000000000000000000000000000000000000000000000000000000081526004016108dd9061156d565b60405180910390fd5b600160008154809291906108f9906112ac565b91905055506040518060c0016040528060015481526020013373ffffffffffffffffffffffffffffffffffffffff1681526020018481526020018381526020018281526020016000151581525060008060015481526020019081526020016000206000820151816000015560208201518160010160006101000a81548173ffffffffffffffffffffffffffffffffffffffff021916908373ffffffffffffffffffffffffffffffffffffffff16021790555060408201518160020190816109c09190611739565b50606082015181600301556080820151816004015560a08201518160050160006101000a81548160ff0219169083151502179055509050507feff9c77bc81011526aa06258443e09f9e394f6f3511c79459acbc785812607ff60015433858585604051610a3195949392919061180b565b60405180910390a1505050565b600081519050919050565b600082825260208201905092915050565b6000819050602082019050919050565b6000819050919050565b610a7d81610a6a565b82525050565b6000610a8f8383610a74565b60208301905092915050565b6000602082019050919050565b6000610ab382610a3e565b610abd8185610a49565b9350610ac883610a5a565b8060005b83811015610af9578151610ae08882610a83565b9750610aeb83610a9b565b925050600181019050610acc565b5085935050505092915050565b600081519050919050565b600082825260208201905092915050565b6000819050602082019050919050565b600073ffffffffffffffffffffffffffffffffffffffff82169050919050565b6000610b5d82610b32565b9050919050565b610b6d81610b52565b82525050565b6000610b7f8383610b64565b60208301905092915050565b6000602082019050919050565b6000610ba382610b06565b610bad8185610b11565b9350610bb883610b22565b8060005b83811015610be9578151610bd08882610b73565b9750610bdb83610b8b565b925050600181019050610bbc565b5085935050505092915050565b600081519050919050565b600082825260208201905092915050565b6000819050602082019050919050565b600081519050919050565b600082825260208201905092915050565b60005b83811015610c5c578082015181840152602081019050610c41565b60008484015250505050565b6000601f19601f8301169050919050565b6000610c8482610c22565b610c8e8185610c2d565b9350610c9e818560208601610c3e565b610ca781610c68565b840191505092915050565b6000610cbe8383610c79565b905092915050565b6000602082019050919050565b6000610cde82610bf6565b610ce88185610c01565b935083602082028501610cfa85610c12565b8060005b85811015610d365784840389528151610d178582610cb2565b9450610d2283610cc6565b925060208a01995050600181019050610cfe565b50829750879550505050505092915050565b600081519050919050565b600082825260208201905092915050565b6000819050602082019050919050565b60008115159050919050565b610d8981610d74565b82525050565b6000610d9b8383610d80565b60208301905092915050565b6000602082019050919050565b6000610dbf82610d48565b610dc98185610d53565b9350610dd483610d64565b8060005b83811015610e05578151610dec8882610d8f565b9750610df783610da7565b925050600181019050610dd8565b5085935050505092915050565b600060c0820190508181036000830152610e2c8189610aa8565b90508181036020830152610e408188610b98565b90508181036040830152610e548187610cd3565b90508181036060830152610e688186610aa8565b90508181036080830152610e7c8185610aa8565b905081810360a0830152610e908184610db4565b9050979650505050505050565b610ea681610a6a565b82525050565b6000602082019050610ec16000830184610e9d565b92915050565b6000604051905090565b600080fd5b600080fd5b610ee481610a6a565b8114610eef57600080fd5b50565b600081359050610f0181610edb565b92915050565b600060208284031215610f1d57610f1c610ed1565b5b6000610f2b84828501610ef2565b91505092915050565b6000610f3f82610b32565b9050919050565b610f4f81610f34565b82525050565b600082825260208201905092915050565b6000610f7182610c22565b610f7b8185610f55565b9350610f8b818560208601610c3e565b610f9481610c68565b840191505092915050565b610fa881610d74565b82525050565b600060c082019050610fc36000830189610e9d565b610fd06020830188610f46565b8181036040830152610fe28187610f66565b9050610ff16060830186610e9d565b610ffe6080830185610e9d565b61100b60a0830184610f9f565b979650505050505050565b600080fd5b600080fd5b7f4e487b7100000000000000000000000000000000000000000000000000000000600052604160045260246000fd5b61105882610c68565b810181811067ffffffffffffffff8211171561107757611076611020565b5b80604052505050565b600061108a610ec7565b9050611096828261104f565b919050565b600067ffffffffffffffff8211156110b6576110b5611020565b5b6110bf82610c68565b9050602081019050919050565b82818337600083830152505050565b60006110ee6110e98461109b565b611080565b90508281526020810184848401111561110a5761110961101b565b5b6111158482856110cc565b509392505050565b600082601f83011261113257611131611016565b5b81356111428482602086016110db565b91505092915050565b60008060006060848603121561116457611163610ed1565b5b600084013567ffffffffffffffff81111561118257611181610ed6565b5b61118e8682870161111d565b935050602061119f86828701610ef2565b92505060406111b086828701610ef2565b9150509250925092565b7f4e487b7100000000000000000000000000000000000000000000000000000000600052601160045260246000fd5b60006111f482610a6a565b91506111ff83610a6a565b9250828203905081811115611217576112166111ba565b5b92915050565b7f4e487b7100000000000000000000000000000000000000000000000000000000600052603260045260246000fd5b7f4e487b7100000000000000000000000000000000000000000000000000000000600052602260045260246000fd5b6000600282049050600182168061129357607f821691505b6020821081036112a6576112a561124c565b5b50919050565b60006112b782610a6a565b91507fffffffffffffffffffffffffffffffffffffffffffffffffffffffffffffffff82036112e9576112e86111ba565b5b600182019050919050565b7f4974656d20736f6c64206f757400000000000000000000000000000000000000600082015250565b600061132a600d83610f55565b9150611335826112f4565b602082019050919050565b600060208201905081810360008301526113598161131d565b9050919050565b7f4e6f206974656d73206c65667400000000000000000000000000000000000000600082015250565b6000611396600d83610f55565b91506113a182611360565b602082019050919050565b600060208201905081810360008301526113c581611389565b9050919050565b7f496e636f72726563742070726963650000000000000000000000000000000000600082015250565b6000611402600f83610f55565b915061140d826113cc565b602082019050919050565b60006020820190508181036000830152611431816113f5565b9050919050565b600061144382610a6a565b915060008203611456576114556111ba565b5b600182039050919050565b61146a81610b52565b82525050565b60006080820190506114856000830187610e9d565b6114926020830186611461565b61149f6040830185610e9d565b6114ac6060830184610e9d565b95945050505050565b7f5072696365206d75737420626520706f73697469766500000000000000000000600082015250565b60006114eb601683610f55565b91506114f6826114b5565b602082019050919050565b6000602082019050818103600083015261151a816114de565b9050919050565b7f5175616e74697479206d75737420626520706f73697469766500000000000000600082015250565b6000611557601983610f55565b915061156282611521565b602082019050919050565b600060208201905081810360008301526115868161154a565b9050919050565b60008190508160005260206000209050919050565b60006020601f8301049050919050565b600082821b905092915050565b6000600883026115ef7fffffffffffffffffffffffffffffffffffffffffffffffffffffffffffffffff826115b2565b6115f986836115b2565b95508019841693508086168417925050509392505050565b6000819050919050565b600061163661163161162c84610a6a565b611611565b610a6a565b9050919050565b6000819050919050565b6116508361161b565b61166461165c8261163d565b8484546115bf565b825550505050565b600090565b61167961166c565b611684818484611647565b505050565b5b818110156116a85761169d600082611671565b60018101905061168a565b5050565b601f8211156116ed576116be8161158d565b6116c7846115a2565b810160208510156116d6578190505b6116ea6116e2856115a2565b830182611689565b50505b505050565b600082821c905092915050565b6000611710600019846008026116f2565b1980831691505092915050565b600061172983836116ff565b9150826002028217905092915050565b61174282610c22565b67ffffffffffffffff81111561175b5761175a611020565b5b611765825461127b565b6117708282856116ac565b600060209050601f8311600181146117a35760008415611791578287015190505b61179b858261171d565b865550611803565b601f1984166117b18661158d565b60005b828110156117d9578489015182556001820191506020850194506020810190506117b4565b868310156117f657848901516117f2601f8916826116ff565b8355505b6001600288020188555050505b505050505050565b600060a0820190506118206000830188610e9d565b61182d6020830187611461565b818103604083015261183f8186610f66565b905061184e6060830185610e9d565b61185b6080830184610e9d565b969550505050505056fea2646970667358221220c20c3ca938d744415b65c4e99e6135f26648cd80c9cd1e1ca6950a94e1c7074064736f6c634300081b0033",
          "opcodes": "PUSH1 0x80 PUSH1 0x40 MSTORE CALLVALUE DUP1 ISZERO PUSH1 0xF JUMPI PUSH1 0x0 DUP1 REVERT JUMPDEST POP PUSH2 0x189B DUP1 PUSH2 0x1F PUSH1 0x0 CODECOPY PUSH1 0x0 RETURN INVALID PUSH1 0x80 PUSH1 0x40 MSTORE PUSH1 0x4 CALLDATASIZE LT PUSH2 0x4A JUMPI PUSH1 0x0 CALLDATALOAD PUSH1 0xE0 SHR DUP1 PUSH4 0x410D59CC EQ PUSH2 0x4F JUMPI DUP1 PUSH4 0x6BFB0D01 EQ PUSH2 0x7F JUMPI DUP1 PUSH4 0xBFB231D2 EQ PUSH2 0xAA JUMPI DUP1 PUSH4 0xD38EA5BF EQ PUSH2 0xEC JUMPI DUP1 PUSH4 0xF1766279 EQ PUSH2 0x108 JUMPI JUMPDEST PUSH1 0x0 DUP1 REVERT JUMPDEST CALLVALUE DUP1 ISZERO PUSH2 0x5B JUMPI PUSH1 0x0 DUP1 REVERT JUMPDEST POP PUSH2 0x64 PUSH2 0x131 JUMP JUMPDEST PUSH1 0x40 MLOAD PUSH2 0x76 SWAP7 SWAP6 SWAP5 SWAP4 SWAP3 SWAP2 SWAP1 PUSH2 0xE12 JUMP JUMPDEST PUSH1 0x40 MLOAD DUP1 SWAP2 SUB SWAP1 RETURN JUMPDEST CALLVALUE DUP1 ISZERO PUSH2 0x8B JUMPI PUSH1 0x0 DUP1 REVERT JUMPDEST POP PUSH2 0x94 PUSH2 0x57C JUMP JUMPDEST PUSH1 0x40 MLOAD PUSH2 0xA1 SWAP2 SWAP1 PUSH2 0xEAC JUMP JUMPDEST PUSH1 0x40 MLOAD DUP1 SWAP2 SUB SWAP1 RETURN JUMPDEST CALLVALUE DUP1 ISZERO PUSH2 0xB6 JUMPI PUSH1 0x0 DUP1 REVERT JUMPDEST POP PUSH2 0xD1 PUSH1 0x4 DUP1 CALLDATASIZE SUB DUP2 ADD SWAP1 PUSH2 0xCC SWAP2 SWAP1 PUSH2 0xF07 JUMP JUMPDEST PUSH2 0x582 JUMP JUMPDEST PUSH1 0x40 MLOAD PUSH2 0xE3 SWAP7 SWAP6 SWAP5 SWAP4 SWAP3 SWAP2 SWAP1 PUSH2 0xFAE JUMP JUMPDEST PUSH1 0x40 MLOAD DUP1 SWAP2 SUB SWAP1 RETURN JUMPDEST PUSH2 0x106 PUSH1 0x4 DUP1 CALLDATASIZE SUB DUP2 ADD SWAP1 PUSH2 0x101 SWAP2 SWAP1 PUSH2 0xF07 JUMP JUMPDEST PUSH2 0x673 JUMP JUMPDEST STOP JUMPDEST CALLVALUE DUP1 ISZERO PUSH2 0x114 JUMPI PUSH1 0x0 DUP1 REVERT JUMPDEST POP PUSH2 0x12F PUSH1 0x4 DUP1 CALLDATASIZE SUB DUP2 ADD SWAP1 PUSH2 0x12A SWAP2 SWAP1 PUSH2 0x114B JUMP JUMPDEST PUSH2 0x860 JUMP JUMPDEST STOP JUMPDEST PUSH1 0x60 DUP1 PUSH1 0x60 DUP1 PUSH1 0x60 DUP1 PUSH1 0x0 PUSH1 0x1 SLOAD PUSH8 0xFFFFFFFFFFFFFFFF DUP2 GT ISZERO PUSH2 0x158 JUMPI PUSH2 0x157 PUSH2 0x1020 JUMP JUMPDEST JUMPDEST PUSH1 0x40 MLOAD SWAP1 DUP1 DUP3 MSTORE DUP1 PUSH1 0x20 MUL PUSH1 0x20 ADD DUP3 ADD PUSH1 0x40 MSTORE DUP1 ISZERO PUSH2 0x186 JUMPI DUP2 PUSH1 0x20 ADD PUSH1 0x20 DUP3 MUL DUP1 CALLDATASIZE DUP4 CALLDATACOPY DUP1 DUP3 ADD SWAP2 POP POP SWAP1 POP JUMPDEST POP SWAP1 POP PUSH1 0x0 PUSH1 0x1 SLOAD PUSH8 0xFFFFFFFFFFFFFFFF DUP2 GT ISZERO PUSH2 0x1A7 JUMPI PUSH2 0x1A6 PUSH2 0x1020 JUMP JUMPDEST JUMPDEST PUSH1 0x40 MLOAD SWAP1 DUP1 DUP3 MSTORE DUP1 PUSH1 0x20 MUL PUSH1 0x20 ADD DUP3 ADD PUSH1 0x40 MSTORE DUP1 ISZERO PUSH2 0x1D5 JUMPI DUP2 PUSH1 0x20 ADD PUSH1 0x20 DUP3 MUL DUP1 CALLDATASIZE DUP4 CALLDATACOPY DUP1 DUP3 ADD SWAP2 POP POP SWAP1 POP JUMPDEST POP SWAP1 POP PUSH1 0x0 PUSH1 0x1 SLOAD PUSH8 0xFFFFFFFFFFFFFFFF DUP2 GT ISZERO PUSH2 0x1F6 JUMPI PUSH2 0x1F5 PUSH2 0x1020 JUMP JUMPDEST JUMPDEST PUSH1 0x40 MLOAD SWAP1 DUP1 DUP3 MSTORE DUP1 PUSH1 0x20 MUL PUSH1 0x20 ADD DUP3 ADD PUSH1 0x40 MSTORE DUP1 ISZERO PUSH2 0x229 JUMPI DUP2 PUSH1 0x20 ADD JUMPDEST PUSH1 0x60 DUP2 MSTORE PUSH1 0x20 ADD SWAP1 PUSH1 0x1 SWAP1 SUB SWAP1 DUP2 PUSH2 0x214 JUMPI SWAP1 POP JUMPDEST POP SWAP1 POP PUSH1 0x0 PUSH1 0x1 SLOAD PUSH8 0xFFFFFFFFFFFFFFFF DUP2 GT ISZERO PUSH2 0x24A JUMPI PUSH2 0x249 PUSH2 0x1020 JUMP JUMPDEST JUMPDEST PUSH1 0x40 MLOAD SWAP1 DUP1 DUP3 MSTORE DUP1 PUSH1 0x20 MUL PUSH1 0x20 ADD DUP3 ADD PUSH1 0x40 MSTORE DUP1 ISZERO PUSH2 0x278 JUMPI DUP2 PUSH1 0x20 ADD PUSH1 0x20 DUP3 MUL DUP1 CALLDATASIZE DUP4 CALLDATACOPY DUP1 DUP3 ADD SWAP2 POP POP SWAP1 POP JUMPDEST POP SWAP1 POP PUSH1 0x0 PUSH1 0x1 SLOAD PUSH8 0xFFFFFFFFFFFFFFFF DUP2 GT ISZERO PUSH2 0x299 JUMPI PUSH2 0x298 PUSH2 0x1020 JUMP JUMPDEST JUMPDEST PUSH1 0x40 MLOAD SWAP1 DUP1 DUP3 MSTORE DUP1 PUSH1 0x20 MUL PUSH1 0x20 ADD DUP3 ADD PUSH1 0x40 MSTORE DUP1 ISZERO PUSH2 0x2C7 JUMPI DUP2 PUSH1 0x20 ADD PUSH1 0x20 DUP3 MUL DUP1 CALLDATASIZE DUP4 CALLDATACOPY DUP1 DUP3 ADD SWAP2 POP POP SWAP1 POP JUMPDEST POP SWAP1 POP PUSH1 0x0 PUSH1 0x1 SLOAD PUSH8 0xFFFFFFFFFFFFFFFF DUP2 GT ISZERO PUSH2 0x2E8 JUMPI PUSH2 0x2E7 PUSH2 0x1020 JUMP JUMPDEST JUMPDEST PUSH1 0x40 MLOAD SWAP1 DUP1 DUP3 MSTORE DUP1 PUSH1 0x20 MUL PUSH1 0x20 ADD DUP3 ADD PUSH1 0x40 MSTORE DUP1 ISZERO PUSH2 0x316 JUMPI DUP2 PUSH1 0x20 ADD PUSH1 0x20 DUP3 MUL DUP1 CALLDATASIZE DUP4 CALLDATACOPY DUP1 DUP3 ADD SWAP2 POP POP SWAP1 POP JUMPDEST POP SWAP1 POP PUSH1 0x0 PUSH1 0x1 SWAP1 POP JUMPDEST PUSH1 0x1 SLOAD DUP2 GT PUSH2 0x55B JUMPI PUSH1 0x0 DUP1 PUSH1 0x0 DUP4 DUP2 MSTORE PUSH1 0x20 ADD SWAP1 DUP2 MSTORE PUSH1 0x20 ADD PUSH1 0x0 KECCAK256 SWAP1 POP DUP1 PUSH1 0x0 ADD SLOAD DUP9 PUSH1 0x1 DUP5 PUSH2 0x352 SWAP2 SWAP1 PUSH2 0x11E9 JUMP JUMPDEST DUP2 MLOAD DUP2 LT PUSH2 0x363 JUMPI PUSH2 0x362 PUSH2 0x121D JUMP JUMPDEST JUMPDEST PUSH1 0x20 MUL PUSH1 0x20 ADD ADD DUP2 DUP2 MSTORE POP POP DUP1 PUSH1 0x1 ADD PUSH1 0x0 SWAP1 SLOAD SWAP1 PUSH2 0x100 EXP SWAP1 DIV PUSH20 0xFFFFFFFFFFFFFFFFFFFFFFFFFFFFFFFFFFFFFFFF AND DUP8 PUSH1 0x1 DUP5 PUSH2 0x3A2 SWAP2 SWAP1 PUSH2 0x11E9 JUMP JUMPDEST DUP2 MLOAD DUP2 LT PUSH2 0x3B3 JUMPI PUSH2 0x3B2 PUSH2 0x121D JUMP JUMPDEST JUMPDEST PUSH1 0x20 MUL PUSH1 0x20 ADD ADD SWAP1 PUSH20 0xFFFFFFFFFFFFFFFFFFFFFFFFFFFFFFFFFFFFFFFF AND SWAP1 DUP2 PUSH20 0xFFFFFFFFFFFFFFFFFFFFFFFFFFFFFFFFFFFFFFFF AND DUP2 MSTORE POP POP DUP1 PUSH1 0x2 ADD DUP1 SLOAD PUSH2 0x3FC SWAP1 PUSH2 0x127B JUMP JUMPDEST DUP1 PUSH1 0x1F ADD PUSH1 0x20 DUP1 SWAP2 DIV MUL PUSH1 0x20 ADD PUSH1 0x40 MLOAD SWAP1 DUP2 ADD PUSH1 0x40 MSTORE DUP1 SWAP3 SWAP2 SWAP1 DUP2 DUP2 MSTORE PUSH1 0x20 ADD DUP3 DUP1 SLOAD PUSH2 0x428 SWAP1 PUSH2 0x127B JUMP JUMPDEST DUP1 ISZERO PUSH2 0x475 JUMPI DUP1 PUSH1 0x1F LT PUSH2 0x44A JUMPI PUSH2 0x100 DUP1 DUP4 SLOAD DIV MUL DUP4 MSTORE SWAP2 PUSH1 0x20 ADD SWAP2 PUSH2 0x475 JUMP JUMPDEST DUP3 ADD SWAP2 SWAP1 PUSH1 0x0 MSTORE PUSH1 0x20 PUSH1 0x0 KECCAK256 SWAP1 JUMPDEST DUP2 SLOAD DUP2 MSTORE SWAP1 PUSH1 0x1 ADD SWAP1 PUSH1 0x20 ADD DUP1 DUP4 GT PUSH2 0x458 JUMPI DUP3 SWAP1 SUB PUSH1 0x1F AND DUP3 ADD SWAP2 JUMPDEST POP POP POP POP POP DUP7 PUSH1 0x1 DUP5 PUSH2 0x488 SWAP2 SWAP1 PUSH2 0x11E9 JUMP JUMPDEST DUP2 MLOAD DUP2 LT PUSH2 0x499 JUMPI PUSH2 0x498 PUSH2 0x121D JUMP JUMPDEST JUMPDEST PUSH1 0x20 MUL PUSH1 0x20 ADD ADD DUP2 SWAP1 MSTORE POP DUP1 PUSH1 0x3 ADD SLOAD DUP6 PUSH1 0x1 DUP5 PUSH2 0x4B7 SWAP2 SWAP1 PUSH2 0x11E9 JUMP JUMPDEST DUP2 MLOAD DUP2 LT PUSH2 0x4C8 JUMPI PUSH2 0x4C7 PUSH2 0x121D JUMP JUMPDEST JUMPDEST PUSH1 0x20 MUL PUSH1 0x20 ADD ADD DUP2 DUP2 MSTORE POP POP DUP1 PUSH1 0x4 ADD SLOAD DUP5 PUSH1 0x1 DUP5 PUSH2 0x4E7 SWAP2 SWAP1 PUSH2 0x11E9 JUMP JUMPDEST DUP2 MLOAD DUP2 LT PUSH2 0x4F8 JUMPI PUSH2 0x4F7 PUSH2 0x121D JUMP JUMPDEST JUMPDEST PUSH1 0x20 MUL PUSH1 0x20 ADD ADD DUP2 DUP2 MSTORE POP POP DUP1 PUSH1 0x5 ADD PUSH1 0x0 SWAP1 SLOAD SWAP1 PUSH2 0x100 EXP SWAP1 DIV PUSH1 0xFF AND DUP4 PUSH1 0x1 DUP5 PUSH2 0x524 SWAP2 SWAP1 PUSH2 0x11E9 JUMP JUMPDEST DUP2 MLOAD DUP2 LT PUSH2 0x535 JUMPI PUSH2 0x534 PUSH2 0x121D JUMP JUMPDEST JUMPDEST PUSH1 0x20 MUL PUSH1 0x20 ADD ADD SWAP1 ISZERO ISZERO SWAP1 DUP2 ISZERO ISZERO DUP2 MSTORE POP POP POP DUP1 DUP1 PUSH2 0x553 SWAP1 PUSH2 0x12AC JUMP JUMPDEST SWAP2 POP POP PUSH2 0x320 JUMP JUMPDEST POP DUP6 DUP6 DUP6 DUP6 DUP6 DUP6 SWAP12 POP SWAP12 POP SWAP12 POP SWAP12 POP SWAP12 POP SWAP12 POP POP POP POP POP POP POP SWAP1 SWAP2 SWAP3 SWAP4 SWAP5 SWAP6 JUMP JUMPDEST PUSH1 0x1 SLOAD DUP2 JUMP JUMPDEST PUSH1 0x0 PUSH1 0x20 MSTORE DUP1 PUSH1 0x0 MSTORE PUSH1 0x40 PUSH1 0x0 KECCAK256 PUSH1 0x0 SWAP2 POP SWAP1 POP DUP1 PUSH1 0x0 ADD SLOAD SWAP1 DUP1 PUSH1 0x1 ADD PUSH1 0x0 SWAP1 SLOAD SWAP1 PUSH2 0x100 EXP SWAP1 DIV PUSH20 0xFFFFFFFFFFFFFFFFFFFFFFFFFFFFFFFFFFFFFFFF AND SWAP1 DUP1 PUSH1 0x2 ADD DUP1 SLOAD PUSH2 0x5D1 SWAP1 PUSH2 0x127B JUMP JUMPDEST DUP1 PUSH1 0x1F ADD PUSH1 0x20 DUP1 SWAP2 DIV MUL PUSH1 0x20 ADD PUSH1 0x40 MLOAD SWAP1 DUP2 ADD PUSH1 0x40 MSTORE DUP1 SWAP3 SWAP2 SWAP1 DUP2 DUP2 MSTORE PUSH1 0x20 ADD DUP3 DUP1 SLOAD PUSH2 0x5FD SWAP1 PUSH2 0x127B JUMP JUMPDEST DUP1 ISZERO PUSH2 0x64A JUMPI DUP1 PUSH1 0x1F LT PUSH2 0x61F JUMPI PUSH2 0x100 DUP1 DUP4 SLOAD DIV MUL DUP4 MSTORE SWAP2 PUSH1 0x20 ADD SWAP2 PUSH2 0x64A JUMP JUMPDEST DUP3 ADD SWAP2 SWAP1 PUSH1 0x0 MSTORE PUSH1 0x20 PUSH1 0x0 KECCAK256 SWAP1 JUMPDEST DUP2 SLOAD DUP2 MSTORE SWAP1 PUSH1 0x1 ADD SWAP1 PUSH1 0x20 ADD DUP1 DUP4 GT PUSH2 0x62D JUMPI DUP3 SWAP1 SUB PUSH1 0x1F AND DUP3 ADD SWAP2 JUMPDEST POP POP POP POP POP SWAP1 DUP1 PUSH1 0x3 ADD SLOAD SWAP1 DUP1 PUSH1 0x4 ADD SLOAD SWAP1 DUP1 PUSH1 0x5 ADD PUSH1 0x0 SWAP1 SLOAD SWAP1 PUSH2 0x100 EXP SWAP1 DIV PUSH1 0xFF AND SWAP1 POP DUP7 JUMP JUMPDEST PUSH1 0x0 DUP1 PUSH1 0x0 DUP4 DUP2 MSTORE PUSH1 0x20 ADD SWAP1 DUP2 MSTORE PUSH1 0x20 ADD PUSH1 0x0 KECCAK256 SWAP1 POP DUP1 PUSH1 0x5 ADD PUSH1 0x0 SWAP1 SLOAD SWAP1 PUSH2 0x100 EXP SWAP1 DIV PUSH1 0xFF AND ISZERO PUSH2 0x6DB JUMPI PUSH1 0x40 MLOAD PUSH32 0x8C379A000000000000000000000000000000000000000000000000000000000 DUP2 MSTORE PUSH1 0x4 ADD PUSH2 0x6D2 SWAP1 PUSH2 0x1340 JUMP JUMPDEST PUSH1 0x40 MLOAD DUP1 SWAP2 SUB SWAP1 REVERT JUMPDEST PUSH1 0x0 DUP2 PUSH1 0x4 ADD SLOAD GT PUSH2 0x722 JUMPI PUSH1 0x40 MLOAD PUSH32 0x8C379A000000000000000000000000000000000000000000000000000000000 DUP2 MSTORE PUSH1 0x4 ADD PUSH2 0x719 SWAP1 PUSH2 0x13AC JUMP JUMPDEST PUSH1 0x40 MLOAD DUP1 SWAP2 SUB SWAP1 REVERT JUMPDEST DUP1 PUSH1 0x3 ADD SLOAD CALLVALUE EQ PUSH2 0x768 JUMPI PUSH1 0x40 MLOAD PUSH32 0x8C379A000000000000000000000000000000000000000000000000000000000 DUP2 MSTORE PUSH1 0x4 ADD PUSH2 0x75F SWAP1 PUSH2 0x1418 JUMP JUMPDEST PUSH1 0x40 MLOAD DUP1 SWAP2 SUB SWAP1 REVERT JUMPDEST DUP1 PUSH1 0x1 ADD PUSH1 0x0 SWAP1 SLOAD SWAP1 PUSH2 0x100 EXP SWAP1 DIV PUSH20 0xFFFFFFFFFFFFFFFFFFFFFFFFFFFFFFFFFFFFFFFF AND PUSH20 0xFFFFFFFFFFFFFFFFFFFFFFFFFFFFFFFFFFFFFFFF AND PUSH2 0x8FC CALLVALUE SWAP1 DUP2 ISZERO MUL SWAP1 PUSH1 0x40 MLOAD PUSH1 0x0 PUSH1 0x40 MLOAD DUP1 DUP4 SUB DUP2 DUP6 DUP9 DUP9 CALL SWAP4 POP POP POP POP ISZERO DUP1 ISZERO PUSH2 0x7D2 JUMPI RETURNDATASIZE PUSH1 0x0 DUP1 RETURNDATACOPY RETURNDATASIZE PUSH1 0x0 REVERT JUMPDEST POP DUP1 PUSH1 0x4 ADD PUSH1 0x0 DUP2 SLOAD DUP1 SWAP3 SWAP2 SWAP1 PUSH2 0x7E8 SWAP1 PUSH2 0x1438 JUMP JUMPDEST SWAP2 SWAP1 POP SSTORE POP PUSH1 0x0 DUP2 PUSH1 0x4 ADD SLOAD SUB PUSH2 0x817 JUMPI PUSH1 0x1 DUP2 PUSH1 0x5 ADD PUSH1 0x0 PUSH2 0x100 EXP DUP2 SLOAD DUP2 PUSH1 0xFF MUL NOT AND SWAP1 DUP4 ISZERO ISZERO MUL OR SWAP1 SSTORE POP JUMPDEST PUSH32 0x7E90354D1B8C35FEB2FAC2D29C9E6D5A7DAA4D8D4E97AC36FD94CC11A3DB3D9E DUP3 CALLER DUP4 PUSH1 0x3 ADD SLOAD DUP5 PUSH1 0x4 ADD SLOAD PUSH1 0x40 MLOAD PUSH2 0x854 SWAP5 SWAP4 SWAP3 SWAP2 SWAP1 PUSH2 0x1470 JUMP JUMPDEST PUSH1 0x40 MLOAD DUP1 SWAP2 SUB SWAP1 LOG1 POP POP JUMP JUMPDEST PUSH1 0x0 DUP3 GT PUSH2 0x8A3 JUMPI PUSH1 0x40 MLOAD PUSH32 0x8C379A000000000000000000000000000000000000000000000000000000000 DUP2 MSTORE PUSH1 0x4 ADD PUSH2 0x89A SWAP1 PUSH2 0x1501 JUMP JUMPDEST PUSH1 0x40 MLOAD DUP1 SWAP2 SUB SWAP1 REVERT JUMPDEST PUSH1 0x0 DUP2 GT PUSH2 0x8E6 JUMPI PUSH1 0x40 MLOAD PUSH32 0x8C379A000000000000000000000000000000000000000000000000000000000 DUP2 MSTORE PUSH1 0x4 ADD PUSH2 0x8DD SWAP1 PUSH2 0x156D JUMP JUMPDEST PUSH1 0x40 MLOAD DUP1 SWAP2 SUB SWAP1 REVERT JUMPDEST PUSH1 0x1 PUSH1 0x0 DUP2 SLOAD DUP1 SWAP3 SWAP2 SWAP1 PUSH2 0x8F9 SWAP1 PUSH2 0x12AC JUMP JUMPDEST SWAP2 SWAP1 POP SSTORE POP PUSH1 0x40 MLOAD DUP1 PUSH1 0xC0 ADD PUSH1 0x40 MSTORE DUP1 PUSH1 0x1 SLOAD DUP2 MSTORE PUSH1 0x20 ADD CALLER PUSH20 0xFFFFFFFFFFFFFFFFFFFFFFFFFFFFFFFFFFFFFFFF AND DUP2 MSTORE PUSH1 0x20 ADD DUP5 DUP2 MSTORE PUSH1 0x20 ADD DUP4 DUP2 MSTORE PUSH1 0x20 ADD DUP3 DUP2 MSTORE PUSH1 0x20 ADD PUSH1 0x0 ISZERO ISZERO DUP2 MSTORE POP PUSH1 0x0 DUP1 PUSH1 0x1 SLOAD DUP2 MSTORE PUSH1 0x20 ADD SWAP1 DUP2 MSTORE PUSH1 0x20 ADD PUSH1 0x0 KECCAK256 PUSH1 0x0 DUP3 ADD MLOAD DUP2 PUSH1 0x0 ADD SSTORE PUSH1 0x20 DUP3 ADD MLOAD DUP2 PUSH1 0x1 ADD PUSH1 0x0 PUSH2 0x100 EXP DUP2 SLOAD DUP2 PUSH20 0xFFFFFFFFFFFFFFFFFFFFFFFFFFFFFFFFFFFFFFFF MUL NOT AND SWAP1 DUP4 PUSH20 0xFFFFFFFFFFFFFFFFFFFFFFFFFFFFFFFFFFFFFFFF AND MUL OR SWAP1 SSTORE POP PUSH1 0x40 DUP3 ADD MLOAD DUP2 PUSH1 0x2 ADD SWAP1 DUP2 PUSH2 0x9C0 SWAP2 SWAP1 PUSH2 0x1739 JUMP JUMPDEST POP PUSH1 0x60 DUP3 ADD MLOAD DUP2 PUSH1 0x3 ADD SSTORE PUSH1 0x80 DUP3 ADD MLOAD DUP2 PUSH1 0x4 ADD SSTORE PUSH1 0xA0 DUP3 ADD MLOAD DUP2 PUSH1 0x5 ADD PUSH1 0x0 PUSH2 0x100 EXP DUP2 SLOAD DUP2 PUSH1 0xFF MUL NOT AND SWAP1 DUP4 ISZERO ISZERO MUL OR SWAP1 SSTORE POP SWAP1 POP POP PUSH32 0xEFF9C77BC81011526AA06258443E09F9E394F6F3511C79459ACBC785812607FF PUSH1 0x1 SLOAD CALLER DUP6 DUP6 DUP6 PUSH1 0x40 MLOAD PUSH2 0xA31 SWAP6 SWAP5 SWAP4 SWAP3 SWAP2 SWAP1 PUSH2 0x180B JUMP JUMPDEST PUSH1 0x40 MLOAD DUP1 SWAP2 SUB SWAP1 LOG1 POP POP POP JUMP JUMPDEST PUSH1 0x0 DUP2 MLOAD SWAP1 POP SWAP2 SWAP1 POP JUMP JUMPDEST PUSH1 0x0 DUP3 DUP3 MSTORE PUSH1 0x20 DUP3 ADD SWAP1 POP SWAP3 SWAP2 POP POP JUMP JUMPDEST PUSH1 0x0 DUP2 SWAP1 POP PUSH1 0x20 DUP3 ADD SWAP1 POP SWAP2 SWAP1 POP JUMP JUMPDEST PUSH1 0x0 DUP2 SWAP1 POP SWAP2 SWAP1 POP JUMP JUMPDEST PUSH2 0xA7D DUP2 PUSH2 0xA6A JUMP JUMPDEST DUP3 MSTORE POP POP JUMP JUMPDEST PUSH1 0x0 PUSH2 0xA8F DUP4 DUP4 PUSH2 0xA74 JUMP JUMPDEST PUSH1 0x20 DUP4 ADD SWAP1 POP SWAP3 SWAP2 POP POP JUMP JUMPDEST PUSH1 0x0 PUSH1 0x20 DUP3 ADD SWAP1 POP SWAP2 SWAP1 POP JUMP JUMPDEST PUSH1 0x0 PUSH2 0xAB3 DUP3 PUSH2 0xA3E JUMP JUMPDEST PUSH2 0xABD DUP2 DUP6 PUSH2 0xA49 JUMP JUMPDEST SWAP4 POP PUSH2 0xAC8 DUP4 PUSH2 0xA5A JUMP JUMPDEST DUP1 PUSH1 0x0 JUMPDEST DUP4 DUP2 LT ISZERO PUSH2 0xAF9 JUMPI DUP2 MLOAD PUSH2 0xAE0 DUP9 DUP3 PUSH2 0xA83 JUMP JUMPDEST SWAP8 POP PUSH2 0xAEB DUP4 PUSH2 0xA9B JUMP JUMPDEST SWAP3 POP POP PUSH1 0x1 DUP2 ADD SWAP1 POP PUSH2 0xACC JUMP JUMPDEST POP DUP6 SWAP4 POP POP POP POP SWAP3 SWAP2 POP POP JUMP JUMPDEST PUSH1 0x0 DUP2 MLOAD SWAP1 POP SWAP2 SWAP1 POP JUMP JUMPDEST PUSH1 0x0 DUP3 DUP3 MSTORE PUSH1 0x20 DUP3 ADD SWAP1 POP SWAP3 SWAP2 POP POP JUMP JUMPDEST PUSH1 0x0 DUP2 SWAP1 POP PUSH1 0x20 DUP3 ADD SWAP1 POP SWAP2 SWAP1 POP JUMP JUMPDEST PUSH1 0x0 PUSH20 0xFFFFFFFFFFFFFFFFFFFFFFFFFFFFFFFFFFFFFFFF DUP3 AND SWAP1 POP SWAP2 SWAP1 POP JUMP JUMPDEST PUSH1 0x0 PUSH2 0xB5D DUP3 PUSH2 0xB32 JUMP JUMPDEST SWAP1 POP SWAP2 SWAP1 POP JUMP JUMPDEST PUSH2 0xB6D DUP2 PUSH2 0xB52 JUMP JUMPDEST DUP3 MSTORE POP POP JUMP JUMPDEST PUSH1 0x0 PUSH2 0xB7F DUP4 DUP4 PUSH2 0xB64 JUMP JUMPDEST PUSH1 0x20 DUP4 ADD SWAP1 POP SWAP3 SWAP2 POP POP JUMP JUMPDEST PUSH1 0x0 PUSH1 0x20 DUP3 ADD SWAP1 POP SWAP2 SWAP1 POP JUMP JUMPDEST PUSH1 0x0 PUSH2 0xBA3 DUP3 PUSH2 0xB06 JUMP JUMPDEST PUSH2 0xBAD DUP2 DUP6 PUSH2 0xB11 JUMP JUMPDEST SWAP4 POP PUSH2 0xBB8 DUP4 PUSH2 0xB22 JUMP JUMPDEST DUP1 PUSH1 0x0 JUMPDEST DUP4 DUP2 LT ISZERO PUSH2 0xBE9 JUMPI DUP2 MLOAD PUSH2 0xBD0 DUP9 DUP3 PUSH2 0xB73 JUMP JUMPDEST SWAP8 POP PUSH2 0xBDB DUP4 PUSH2 0xB8B JUMP JUMPDEST SWAP3 POP POP PUSH1 0x1 DUP2 ADD SWAP1 POP PUSH2 0xBBC JUMP JUMPDEST POP DUP6 SWAP4 POP POP POP POP SWAP3 SWAP2 POP POP JUMP JUMPDEST PUSH1 0x0 DUP2 MLOAD SWAP1 POP SWAP2 SWAP1 POP JUMP JUMPDEST PUSH1 0x0 DUP3 DUP3 MSTORE PUSH1 0x20 DUP3 ADD SWAP1 POP SWAP3 SWAP2 POP POP JUMP JUMPDEST PUSH1 0x0 DUP2 SWAP1 POP PUSH1 0x20 DUP3 ADD SWAP1 POP SWAP2 SWAP1 POP JUMP JUMPDEST PUSH1 0x0 DUP2 MLOAD SWAP1 POP SWAP2 SWAP1 POP JUMP JUMPDEST PUSH1 0x0 DUP3 DUP3 MSTORE PUSH1 0x20 DUP3 ADD SWAP1 POP SWAP3 SWAP2 POP POP JUMP JUMPDEST PUSH1 0x0 JUMPDEST DUP4 DUP2 LT ISZERO PUSH2 0xC5C JUMPI DUP1 DUP3 ADD MLOAD DUP2 DUP5 ADD MSTORE PUSH1 0x20 DUP2 ADD SWAP1 POP PUSH2 0xC41 JUMP JUMPDEST PUSH1 0x0 DUP5 DUP5 ADD MSTORE POP POP POP POP JUMP JUMPDEST PUSH1 0x0 PUSH1 0x1F NOT PUSH1 0x1F DUP4 ADD AND SWAP1 POP SWAP2 SWAP1 POP JUMP JUMPDEST PUSH1 0x0 PUSH2 0xC84 DUP3 PUSH2 0xC22 JUMP JUMPDEST PUSH2 0xC8E DUP2 DUP6 PUSH2 0xC2D JUMP JUMPDEST SWAP4 POP PUSH2 0xC9E DUP2 DUP6 PUSH1 0x20 DUP7 ADD PUSH2 0xC3E JUMP JUMPDEST PUSH2 0xCA7 DUP2 PUSH2 0xC68 JUMP JUMPDEST DUP5 ADD SWAP2 POP POP SWAP3 SWAP2 POP POP JUMP JUMPDEST PUSH1 0x0 PUSH2 0xCBE DUP4 DUP4 PUSH2 0xC79 JUMP JUMPDEST SWAP1 POP SWAP3 SWAP2 POP POP JUMP JUMPDEST PUSH1 0x0 PUSH1 0x20 DUP3 ADD SWAP1 POP SWAP2 SWAP1 POP JUMP JUMPDEST PUSH1 0x0 PUSH2 0xCDE DUP3 PUSH2 0xBF6 JUMP JUMPDEST PUSH2 0xCE8 DUP2 DUP6 PUSH2 0xC01 JUMP JUMPDEST SWAP4 POP DUP4 PUSH1 0x20 DUP3 MUL DUP6 ADD PUSH2 0xCFA DUP6 PUSH2 0xC12 JUMP JUMPDEST DUP1 PUSH1 0x0 JUMPDEST DUP6 DUP2 LT ISZERO PUSH2 0xD36 JUMPI DUP5 DUP5 SUB DUP10 MSTORE DUP2 MLOAD PUSH2 0xD17 DUP6 DUP3 PUSH2 0xCB2 JUMP JUMPDEST SWAP5 POP PUSH2 0xD22 DUP4 PUSH2 0xCC6 JUMP JUMPDEST SWAP3 POP PUSH1 0x20 DUP11 ADD SWAP10 POP POP PUSH1 0x1 DUP2 ADD SWAP1 POP PUSH2 0xCFE JUMP JUMPDEST POP DUP3 SWAP8 POP DUP8 SWAP6 POP POP POP POP POP POP SWAP3 SWAP2 POP POP JUMP JUMPDEST PUSH1 0x0 DUP2 MLOAD SWAP1 POP SWAP2 SWAP1 POP JUMP JUMPDEST PUSH1 0x0 DUP3 DUP3 MSTORE PUSH1 0x20 DUP3 ADD SWAP1 POP SWAP3 SWAP2 POP POP JUMP JUMPDEST PUSH1 0x0 DUP2 SWAP1 POP PUSH1 0x20 DUP3 ADD SWAP1 POP SWAP2 SWAP1 POP JUMP JUMPDEST PUSH1 0x0 DUP2 ISZERO ISZERO SWAP1 POP SWAP2 SWAP1 POP JUMP JUMPDEST PUSH2 0xD89 DUP2 PUSH2 0xD74 JUMP JUMPDEST DUP3 MSTORE POP POP JUMP JUMPDEST PUSH1 0x0 PUSH2 0xD9B DUP4 DUP4 PUSH2 0xD80 JUMP JUMPDEST PUSH1 0x20 DUP4 ADD SWAP1 POP SWAP3 SWAP2 POP POP JUMP JUMPDEST PUSH1 0x0 PUSH1 0x20 DUP3 ADD SWAP1 POP SWAP2 SWAP1 POP JUMP JUMPDEST PUSH1 0x0 PUSH2 0xDBF DUP3 PUSH2 0xD48 JUMP JUMPDEST PUSH2 0xDC9 DUP2 DUP6 PUSH2 0xD53 JUMP JUMPDEST SWAP4 POP PUSH2 0xDD4 DUP4 PUSH2 0xD64 JUMP JUMPDEST DUP1 PUSH1 0x0 JUMPDEST DUP4 DUP2 LT ISZERO PUSH2 0xE05 JUMPI DUP2 MLOAD PUSH2 0xDEC DUP9 DUP3 PUSH2 0xD8F JUMP JUMPDEST SWAP8 POP PUSH2 0xDF7 DUP4 PUSH2 0xDA7 JUMP JUMPDEST SWAP3 POP POP PUSH1 0x1 DUP2 ADD SWAP1 POP PUSH2 0xDD8 JUMP JUMPDEST POP DUP6 SWAP4 POP POP POP POP SWAP3 SWAP2 POP POP JUMP JUMPDEST PUSH1 0x0 PUSH1 0xC0 DUP3 ADD SWAP1 POP DUP2 DUP2 SUB PUSH1 0x0 DUP4 ADD MSTORE PUSH2 0xE2C DUP2 DUP10 PUSH2 0xAA8 JUMP JUMPDEST SWAP1 POP DUP2 DUP2 SUB PUSH1 0x20 DUP4 ADD MSTORE PUSH2 0xE40 DUP2 DUP9 PUSH2 0xB98 JUMP JUMPDEST SWAP1 POP DUP2 DUP2 SUB PUSH1 0x40 DUP4 ADD MSTORE PUSH2 0xE54 DUP2 DUP8 PUSH2 0xCD3 JUMP JUMPDEST SWAP1 POP DUP2 DUP2 SUB PUSH1 0x60 DUP4 ADD MSTORE PUSH2 0xE68 DUP2 DUP7 PUSH2 0xAA8 JUMP JUMPDEST SWAP1 POP DUP2 DUP2 SUB PUSH1 0x80 DUP4 ADD MSTORE PUSH2 0xE7C DUP2 DUP6 PUSH2 0xAA8 JUMP JUMPDEST SWAP1 POP DUP2 DUP2 SUB PUSH1 0xA0 DUP4 ADD MSTORE PUSH2 0xE90 DUP2 DUP5 PUSH2 0xDB4 JUMP JUMPDEST SWAP1 POP SWAP8 SWAP7 POP POP POP POP POP POP POP JUMP JUMPDEST PUSH2 0xEA6 DUP2 PUSH2 0xA6A JUMP JUMPDEST DUP3 MSTORE POP POP JUMP JUMPDEST PUSH1 0x0 PUSH1 0x20 DUP3 ADD SWAP1 POP PUSH2 0xEC1 PUSH1 0x0 DUP4 ADD DUP5 PUSH2 0xE9D JUMP JUMPDEST SWAP3 SWAP2 POP POP JUMP JUMPDEST PUSH1 0x0 PUSH1 0x40 MLOAD SWAP1 POP SWAP1 JUMP JUMPDEST PUSH1 0x0 DUP1 REVERT JUMPDEST PUSH1 0x0 DUP1 REVERT JUMPDEST PUSH2 0xEE4 DUP2 PUSH2 0xA6A JUMP JUMPDEST DUP2 EQ PUSH2 0xEEF JUMPI PUSH1 0x0 DUP1 REVERT JUMPDEST POP JUMP JUMPDEST PUSH1 0x0 DUP2 CALLDATALOAD SWAP1 POP PUSH2 0xF01 DUP2 PUSH2 0xEDB JUMP JUMPDEST SWAP3 SWAP2 POP POP JUMP JUMPDEST PUSH1 0x0 PUSH1 0x20 DUP3 DUP5 SUB SLT ISZERO PUSH2 0xF1D JUMPI PUSH2 0xF1C PUSH2 0xED1 JUMP JUMPDEST JUMPDEST PUSH1 0x0 PUSH2 0xF2B DUP5 DUP3 DUP6 ADD PUSH2 0xEF2 JUMP JUMPDEST SWAP2 POP POP SWAP3 SWAP2 POP POP JUMP JUMPDEST PUSH1 0x0 PUSH2 0xF3F DUP3 PUSH2 0xB32 JUMP JUMPDEST SWAP1 POP SWAP2 SWAP1 POP JUMP JUMPDEST PUSH2 0xF4F DUP2 PUSH2 0xF34 JUMP JUMPDEST DUP3 MSTORE POP POP JUMP JUMPDEST PUSH1 0x0 DUP3 DUP3 MSTORE PUSH1 0x20 DUP3 ADD SWAP1 POP SWAP3 SWAP2 POP POP JUMP JUMPDEST PUSH1 0x0 PUSH2 0xF71 DUP3 PUSH2 0xC22 JUMP JUMPDEST PUSH2 0xF7B DUP2 DUP6 PUSH2 0xF55 JUMP JUMPDEST SWAP4 POP PUSH2 0xF8B DUP2 DUP6 PUSH1 0x20 DUP7 ADD PUSH2 0xC3E JUMP JUMPDEST PUSH2 0xF94 DUP2 PUSH2 0xC68 JUMP JUMPDEST DUP5 ADD SWAP2 POP POP SWAP3 SWAP2 POP POP JUMP JUMPDEST PUSH2 0xFA8 DUP2 PUSH2 0xD74 JUMP JUMPDEST DUP3 MSTORE POP POP JUMP JUMPDEST PUSH1 0x0 PUSH1 0xC0 DUP3 ADD SWAP1 POP PUSH2 0xFC3 PUSH1 0x0 DUP4 ADD DUP10 PUSH2 0xE9D JUMP JUMPDEST PUSH2 0xFD0 PUSH1 0x20 DUP4 ADD DUP9 PUSH2 0xF46 JUMP JUMPDEST DUP2 DUP2 SUB PUSH1 0x40 DUP4 ADD MSTORE PUSH2 0xFE2 DUP2 DUP8 PUSH2 0xF66 JUMP JUMPDEST SWAP1 POP PUSH2 0xFF1 PUSH1 0x60 DUP4 ADD DUP7 PUSH2 0xE9D JUMP JUMPDEST PUSH2 0xFFE PUSH1 0x80 DUP4 ADD DUP6 PUSH2 0xE9D JUMP JUMPDEST PUSH2 0x100B PUSH1 0xA0 DUP4 ADD DUP5 PUSH2 0xF9F JUMP JUMPDEST SWAP8 SWAP7 POP POP POP POP POP POP POP JUMP JUMPDEST PUSH1 0x0 DUP1 REVERT JUMPDEST PUSH1 0x0 DUP1 REVERT JUMPDEST PUSH32 0x4E487B7100000000000000000000000000000000000000000000000000000000 PUSH1 0x0 MSTORE PUSH1 0x41 PUSH1 0x4 MSTORE PUSH1 0x24 PUSH1 0x0 REVERT JUMPDEST PUSH2 0x1058 DUP3 PUSH2 0xC68 JUMP JUMPDEST DUP2 ADD DUP2 DUP2 LT PUSH8 0xFFFFFFFFFFFFFFFF DUP3 GT OR ISZERO PUSH2 0x1077 JUMPI PUSH2 0x1076 PUSH2 0x1020 JUMP JUMPDEST JUMPDEST DUP1 PUSH1 0x40 MSTORE POP POP POP JUMP JUMPDEST PUSH1 0x0 PUSH2 0x108A PUSH2 0xEC7 JUMP JUMPDEST SWAP1 POP PUSH2 0x1096 DUP3 DUP3 PUSH2 0x104F JUMP JUMPDEST SWAP2 SWAP1 POP JUMP JUMPDEST PUSH1 0x0 PUSH8 0xFFFFFFFFFFFFFFFF DUP3 GT ISZERO PUSH2 0x10B6 JUMPI PUSH2 0x10B5 PUSH2 0x1020 JUMP JUMPDEST JUMPDEST PUSH2 0x10BF DUP3 PUSH2 0xC68 JUMP JUMPDEST SWAP1 POP PUSH1 0x20 DUP2 ADD SWAP1 POP SWAP2 SWAP1 POP JUMP JUMPDEST DUP3 DUP2 DUP4 CALLDATACOPY PUSH1 0x0 DUP4 DUP4 ADD MSTORE POP POP POP JUMP JUMPDEST PUSH1 0x0 PUSH2 0x10EE PUSH2 0x10E9 DUP5 PUSH2 0x109B JUMP JUMPDEST PUSH2 0x1080 JUMP JUMPDEST SWAP1 POP DUP3 DUP2 MSTORE PUSH1 0x20 DUP2 ADD DUP5 DUP5 DUP5 ADD GT ISZERO PUSH2 0x110A JUMPI PUSH2 0x1109 PUSH2 0x101B JUMP JUMPDEST JUMPDEST PUSH2 0x1115 DUP5 DUP3 DUP6 PUSH2 0x10CC JUMP JUMPDEST POP SWAP4 SWAP3 POP POP POP JUMP JUMPDEST PUSH1 0x0 DUP3 PUSH1 0x1F DUP4 ADD SLT PUSH2 0x1132 JUMPI PUSH2 0x1131 PUSH2 0x1016 JUMP JUMPDEST JUMPDEST DUP2 CALLDATALOAD PUSH2 0x1142 DUP5 DUP3 PUSH1 0x20 DUP7 ADD PUSH2 0x10DB JUMP JUMPDEST SWAP2 POP POP SWAP3 SWAP2 POP POP JUMP JUMPDEST PUSH1 0x0 DUP1 PUSH1 0x0 PUSH1 0x60 DUP5 DUP7 SUB SLT ISZERO PUSH2 0x1164 JUMPI PUSH2 0x1163 PUSH2 0xED1 JUMP JUMPDEST JUMPDEST PUSH1 0x0 DUP5 ADD CALLDATALOAD PUSH8 0xFFFFFFFFFFFFFFFF DUP2 GT ISZERO PUSH2 0x1182 JUMPI PUSH2 0x1181 PUSH2 0xED6 JUMP JUMPDEST JUMPDEST PUSH2 0x118E DUP7 DUP3 DUP8 ADD PUSH2 0x111D JUMP JUMPDEST SWAP4 POP POP PUSH1 0x20 PUSH2 0x119F DUP7 DUP3 DUP8 ADD PUSH2 0xEF2 JUMP JUMPDEST SWAP3 POP POP PUSH1 0x40 PUSH2 0x11B0 DUP7 DUP3 DUP8 ADD PUSH2 0xEF2 JUMP JUMPDEST SWAP2 POP POP SWAP3 POP SWAP3 POP SWAP3 JUMP JUMPDEST PUSH32 0x4E487B7100000000000000000000000000000000000000000000000000000000 PUSH1 0x0 MSTORE PUSH1 0x11 PUSH1 0x4 MSTORE PUSH1 0x24 PUSH1 0x0 REVERT JUMPDEST PUSH1 0x0 PUSH2 0x11F4 DUP3 PUSH2 0xA6A JUMP JUMPDEST SWAP2 POP PUSH2 0x11FF DUP4 PUSH2 0xA6A JUMP JUMPDEST SWAP3 POP DUP3 DUP3 SUB SWAP1 POP DUP2 DUP2 GT ISZERO PUSH2 0x1217 JUMPI PUSH2 0x1216 PUSH2 0x11BA JUMP JUMPDEST JUMPDEST SWAP3 SWAP2 POP POP JUMP JUMPDEST PUSH32 0x4E487B7100000000000000000000000000000000000000000000000000000000 PUSH1 0x0 MSTORE PUSH1 0x32 PUSH1 0x4 MSTORE PUSH1 0x24 PUSH1 0x0 REVERT JUMPDEST PUSH32 0x4E487B7100000000000000000000000000000000000000000000000000000000 PUSH1 0x0 MSTORE PUSH1 0x22 PUSH1 0x4 MSTORE PUSH1 0x24 PUSH1 0x0 REVERT JUMPDEST PUSH1 0x0 PUSH1 0x2 DUP3 DIV SWAP1 POP PUSH1 0x1 DUP3 AND DUP1 PUSH2 0x1293 JUMPI PUSH1 0x7F DUP3 AND SWAP2 POP JUMPDEST PUSH1 0x20 DUP3 LT DUP2 SUB PUSH2 0x12A6 JUMPI PUSH2 0x12A5 PUSH2 0x124C JUMP JUMPDEST JUMPDEST POP SWAP2 SWAP1 POP JUMP JUMPDEST PUSH1 0x0 PUSH2 0x12B7 DUP3 PUSH2 0xA6A JUMP JUMPDEST SWAP2 POP PUSH32 0xFFFFFFFFFFFFFFFFFFFFFFFFFFFFFFFFFFFFFFFFFFFFFFFFFFFFFFFFFFFFFFFF DUP3 SUB PUSH2 0x12E9 JUMPI PUSH2 0x12E8 PUSH2 0x11BA JUMP JUMPDEST JUMPDEST PUSH1 0x1 DUP3 ADD SWAP1 POP SWAP2 SWAP1 POP JUMP JUMPDEST PUSH32 0x4974656D20736F6C64206F757400000000000000000000000000000000000000 PUSH1 0x0 DUP3 ADD MSTORE POP JUMP JUMPDEST PUSH1 0x0 PUSH2 0x132A PUSH1 0xD DUP4 PUSH2 0xF55 JUMP JUMPDEST SWAP2 POP PUSH2 0x1335 DUP3 PUSH2 0x12F4 JUMP JUMPDEST PUSH1 0x20 DUP3 ADD SWAP1 POP SWAP2 SWAP1 POP JUMP JUMPDEST PUSH1 0x0 PUSH1 0x20 DUP3 ADD SWAP1 POP DUP2 DUP2 SUB PUSH1 0x0 DUP4 ADD MSTORE PUSH2 0x1359 DUP2 PUSH2 0x131D JUMP JUMPDEST SWAP1 POP SWAP2 SWAP1 POP JUMP JUMPDEST PUSH32 0x4E6F206974656D73206C65667400000000000000000000000000000000000000 PUSH1 0x0 DUP3 ADD MSTORE POP JUMP JUMPDEST PUSH1 0x0 PUSH2 0x1396 PUSH1 0xD DUP4 PUSH2 0xF55 JUMP JUMPDEST SWAP2 POP PUSH2 0x13A1 DUP3 PUSH2 0x1360 JUMP JUMPDEST PUSH1 0x20 DUP3 ADD SWAP1 POP SWAP2 SWAP1 POP JUMP JUMPDEST PUSH1 0x0 PUSH1 0x20 DUP3 ADD SWAP1 POP DUP2 DUP2 SUB PUSH1 0x0 DUP4 ADD MSTORE PUSH2 0x13C5 DUP2 PUSH2 0x1389 JUMP JUMPDEST SWAP1 POP SWAP2 SWAP1 POP JUMP JUMPDEST PUSH32 0x496E636F72726563742070726963650000000000000000000000000000000000 PUSH1 0x0 DUP3 ADD MSTORE POP JUMP JUMPDEST PUSH1 0x0 PUSH2 0x1402 PUSH1 0xF DUP4 PUSH2 0xF55 JUMP JUMPDEST SWAP2 POP PUSH2 0x140D DUP3 PUSH2 0x13CC JUMP JUMPDEST PUSH1 0x20 DUP3 ADD SWAP1 POP SWAP2 SWAP1 POP JUMP JUMPDEST PUSH1 0x0 PUSH1 0x20 DUP3 ADD SWAP1 POP DUP2 DUP2 SUB PUSH1 0x0 DUP4 ADD MSTORE PUSH2 0x1431 DUP2 PUSH2 0x13F5 JUMP JUMPDEST SWAP1 POP SWAP2 SWAP1 POP JUMP JUMPDEST PUSH1 0x0 PUSH2 0x1443 DUP3 PUSH2 0xA6A JUMP JUMPDEST SWAP2 POP PUSH1 0x0 DUP3 SUB PUSH2 0x1456 JUMPI PUSH2 0x1455 PUSH2 0x11BA JUMP JUMPDEST JUMPDEST PUSH1 0x1 DUP3 SUB SWAP1 POP SWAP2 SWAP1 POP JUMP JUMPDEST PUSH2 0x146A DUP2 PUSH2 0xB52 JUMP JUMPDEST DUP3 MSTORE POP POP JUMP JUMPDEST PUSH1 0x0 PUSH1 0x80 DUP3 ADD SWAP1 POP PUSH2 0x1485 PUSH1 0x0 DUP4 ADD DUP8 PUSH2 0xE9D JUMP JUMPDEST PUSH2 0x1492 PUSH1 0x20 DUP4 ADD DUP7 PUSH2 0x1461 JUMP JUMPDEST PUSH2 0x149F PUSH1 0x40 DUP4 ADD DUP6 PUSH2 0xE9D JUMP JUMPDEST PUSH2 0x14AC PUSH1 0x60 DUP4 ADD DUP5 PUSH2 0xE9D JUMP JUMPDEST SWAP6 SWAP5 POP POP POP POP POP JUMP JUMPDEST PUSH32 0x5072696365206D75737420626520706F73697469766500000000000000000000 PUSH1 0x0 DUP3 ADD MSTORE POP JUMP JUMPDEST PUSH1 0x0 PUSH2 0x14EB PUSH1 0x16 DUP4 PUSH2 0xF55 JUMP JUMPDEST SWAP2 POP PUSH2 0x14F6 DUP3 PUSH2 0x14B5 JUMP JUMPDEST PUSH1 0x20 DUP3 ADD SWAP1 POP SWAP2 SWAP1 POP JUMP JUMPDEST PUSH1 0x0 PUSH1 0x20 DUP3 ADD SWAP1 POP DUP2 DUP2 SUB PUSH1 0x0 DUP4 ADD MSTORE PUSH2 0x151A DUP2 PUSH2 0x14DE JUMP JUMPDEST SWAP1 POP SWAP2 SWAP1 POP JUMP JUMPDEST PUSH32 0x5175616E74697479206D75737420626520706F73697469766500000000000000 PUSH1 0x0 DUP3 ADD MSTORE POP JUMP JUMPDEST PUSH1 0x0 PUSH2 0x1557 PUSH1 0x19 DUP4 PUSH2 0xF55 JUMP JUMPDEST SWAP2 POP PUSH2 0x1562 DUP3 PUSH2 0x1521 JUMP JUMPDEST PUSH1 0x20 DUP3 ADD SWAP1 POP SWAP2 SWAP1 POP JUMP JUMPDEST PUSH1 0x0 PUSH1 0x20 DUP3 ADD SWAP1 POP DUP2 DUP2 SUB PUSH1 0x0 DUP4 ADD MSTORE PUSH2 0x1586 DUP2 PUSH2 0x154A JUMP JUMPDEST SWAP1 POP SWAP2 SWAP1 POP JUMP JUMPDEST PUSH1 0x0 DUP2 SWAP1 POP DUP2 PUSH1 0x0 MSTORE PUSH1 0x20 PUSH1 0x0 KECCAK256 SWAP1 POP SWAP2 SWAP1 POP JUMP JUMPDEST PUSH1 0x0 PUSH1 0x20 PUSH1 0x1F DUP4 ADD DIV SWAP1 POP SWAP2 SWAP1 POP JUMP JUMPDEST PUSH1 0x0 DUP3 DUP3 SHL SWAP1 POP SWAP3 SWAP2 POP POP JUMP JUMPDEST PUSH1 0x0 PUSH1 0x8 DUP4 MUL PUSH2 0x15EF PUSH32 0xFFFFFFFFFFFFFFFFFFFFFFFFFFFFFFFFFFFFFFFFFFFFFFFFFFFFFFFFFFFFFFFF DUP3 PUSH2 0x15B2 JUMP JUMPDEST PUSH2 0x15F9 DUP7 DUP4 PUSH2 0x15B2 JUMP JUMPDEST SWAP6 POP DUP1 NOT DUP5 AND SWAP4 POP DUP1 DUP7 AND DUP5 OR SWAP3 POP POP POP SWAP4 SWAP3 POP POP POP JUMP JUMPDEST PUSH1 0x0 DUP2 SWAP1 POP SWAP2 SWAP1 POP JUMP JUMPDEST PUSH1 0x0 PUSH2 0x1636 PUSH2 0x1631 PUSH2 0x162C DUP5 PUSH2 0xA6A JUMP JUMPDEST PUSH2 0x1611 JUMP JUMPDEST PUSH2 0xA6A JUMP JUMPDEST SWAP1 POP SWAP2 SWAP1 POP JUMP JUMPDEST PUSH1 0x0 DUP2 SWAP1 POP SWAP2 SWAP1 POP JUMP JUMPDEST PUSH2 0x1650 DUP4 PUSH2 0x161B JUMP JUMPDEST PUSH2 0x1664 PUSH2 0x165C DUP3 PUSH2 0x163D JUMP JUMPDEST DUP5 DUP5 SLOAD PUSH2 0x15BF JUMP JUMPDEST DUP3 SSTORE POP POP POP POP JUMP JUMPDEST PUSH1 0x0 SWAP1 JUMP JUMPDEST PUSH2 0x1679 PUSH2 0x166C JUMP JUMPDEST PUSH2 0x1684 DUP2 DUP5 DUP5 PUSH2 0x1647 JUMP JUMPDEST POP POP POP JUMP JUMPDEST JUMPDEST DUP2 DUP2 LT ISZERO PUSH2 0x16A8 JUMPI PUSH2 0x169D PUSH1 0x0 DUP3 PUSH2 0x1671 JUMP JUMPDEST PUSH1 0x1 DUP2 ADD SWAP1 POP PUSH2 0x168A JUMP JUMPDEST POP POP JUMP JUMPDEST PUSH1 0x1F DUP3 GT ISZERO PUSH2 0x16ED JUMPI PUSH2 0x16BE DUP2 PUSH2 0x158D JUMP JUMPDEST PUSH2 0x16C7 DUP5 PUSH2 0x15A2 JUMP JUMPDEST DUP2 ADD PUSH1 0x20 DUP6 LT ISZERO PUSH2 0x16D6 JUMPI DUP2 SWAP1 POP JUMPDEST PUSH2 0x16EA PUSH2 0x16E2 DUP6 PUSH2 0x15A2 JUMP JUMPDEST DUP4 ADD DUP3 PUSH2 0x1689 JUMP JUMPDEST POP POP JUMPDEST POP POP POP JUMP JUMPDEST PUSH1 0x0 DUP3 DUP3 SHR SWAP1 POP SWAP3 SWAP2 POP POP JUMP JUMPDEST PUSH1 0x0 PUSH2 0x1710 PUSH1 0x0 NOT DUP5 PUSH1 0x8 MUL PUSH2 0x16F2 JUMP JUMPDEST NOT DUP1 DUP4 AND SWAP2 POP POP SWAP3 SWAP2 POP POP JUMP JUMPDEST PUSH1 0x0 PUSH2 0x1729 DUP4 DUP4 PUSH2 0x16FF JUMP JUMPDEST SWAP2 POP DUP3 PUSH1 0x2 MUL DUP3 OR SWAP1 POP SWAP3 SWAP2 POP POP JUMP JUMPDEST PUSH2 0x1742 DUP3 PUSH2 0xC22 JUMP JUMPDEST PUSH8 0xFFFFFFFFFFFFFFFF DUP2 GT ISZERO PUSH2 0x175B JUMPI PUSH2 0x175A PUSH2 0x1020 JUMP JUMPDEST JUMPDEST PUSH2 0x1765 DUP3 SLOAD PUSH2 0x127B JUMP JUMPDEST PUSH2 0x1770 DUP3 DUP3 DUP6 PUSH2 0x16AC JUMP JUMPDEST PUSH1 0x0 PUSH1 0x20 SWAP1 POP PUSH1 0x1F DUP4 GT PUSH1 0x1 DUP2 EQ PUSH2 0x17A3 JUMPI PUSH1 0x0 DUP5 ISZERO PUSH2 0x1791 JUMPI DUP3 DUP8 ADD MLOAD SWAP1 POP JUMPDEST PUSH2 0x179B DUP6 DUP3 PUSH2 0x171D JUMP JUMPDEST DUP7 SSTORE POP PUSH2 0x1803 JUMP JUMPDEST PUSH1 0x1F NOT DUP5 AND PUSH2 0x17B1 DUP7 PUSH2 0x158D JUMP JUMPDEST PUSH1 0x0 JUMPDEST DUP3 DUP2 LT ISZERO PUSH2 0x17D9 JUMPI DUP5 DUP10 ADD MLOAD DUP3 SSTORE PUSH1 0x1 DUP3 ADD SWAP2 POP PUSH1 0x20 DUP6 ADD SWAP5 POP PUSH1 0x20 DUP2 ADD SWAP1 POP PUSH2 0x17B4 JUMP JUMPDEST DUP7 DUP4 LT ISZERO PUSH2 0x17F6 JUMPI DUP5 DUP10 ADD MLOAD PUSH2 0x17F2 PUSH1 0x1F DUP10 AND DUP3 PUSH2 0x16FF JUMP JUMPDEST DUP4 SSTORE POP JUMPDEST PUSH1 0x1 PUSH1 0x2 DUP9 MUL ADD DUP9 SSTORE POP POP POP JUMPDEST POP POP POP POP POP POP JUMP JUMPDEST PUSH1 0x0 PUSH1 0xA0 DUP3 ADD SWAP1 POP PUSH2 0x1820 PUSH1 0x0 DUP4 ADD DUP9 PUSH2 0xE9D JUMP JUMPDEST PUSH2 0x182D PUSH1 0x20 DUP4 ADD DUP8 PUSH2 0x1461 JUMP JUMPDEST DUP2 DUP2 SUB PUSH1 0x40 DUP4 ADD MSTORE PUSH2 0x183F DUP2 DUP7 PUSH2 0xF66 JUMP JUMPDEST SWAP1 POP PUSH2 0x184E PUSH1 0x60 DUP4 ADD DUP6 PUSH2 0xE9D JUMP JUMPDEST PUSH2 0x185B PUSH1 0x80 DUP4 ADD DUP5 PUSH2 0xE9D JUMP JUMPDEST SWAP7 SWAP6 POP POP POP POP POP POP JUMP INVALID LOG2 PUSH5 0x6970667358 0x22 SLT KECCAK256 0xC2 0xC EXTCODECOPY 0xA9 CODESIZE 0xD7 PREVRANDAO COINBASE JUMPDEST PUSH6 0xC4E99E6135F2 PUSH7 0x48CD80C9CD1E1C 0xA6 SWAP6 EXP SWAP5 0xE1 0xC7 SMOD BLOCKHASH PUSH5 0x736F6C6343 STOP ADDMOD SHL STOP CALLER "
        },
        "methodIdentifiers": {
          "getItems()": "410d59cc",
          "itemCount()": "6bfb0d01",
          "items(uint256)": "bfb231d2",
          "listItem(string,uint256,uint256)": "f1766279",
          "purchaseItem(uint256)": "d38ea5bf"
        }
      }
    }
  }
}